{
  "contractName": "MultiSigWallet",
  "abi": [
    {
      "inputs": [
        {
          "internalType": "address[]",
          "name": "_owners",
          "type": "address[]"
        },
        {
          "internalType": "uint256",
          "name": "_numConfirmationsRequired",
          "type": "uint256"
        }
      ],
      "stateMutability": "nonpayable",
      "type": "constructor"
    },
    {
      "anonymous": false,
      "inputs": [
        {
          "indexed": true,
          "internalType": "address",
          "name": "owner",
          "type": "address"
        },
        {
          "indexed": true,
          "internalType": "uint256",
          "name": "txIndex",
          "type": "uint256"
        }
      ],
      "name": "ConfirmTransaction",
      "type": "event"
    },
    {
      "anonymous": false,
      "inputs": [
        {
          "indexed": true,
          "internalType": "address",
          "name": "sender",
          "type": "address"
        },
        {
          "indexed": false,
          "internalType": "uint256",
          "name": "amount",
          "type": "uint256"
        },
        {
          "indexed": false,
          "internalType": "uint256",
          "name": "balance",
          "type": "uint256"
        }
      ],
      "name": "Deposit",
      "type": "event"
    },
    {
      "anonymous": false,
      "inputs": [
        {
          "indexed": true,
          "internalType": "address",
          "name": "owner",
          "type": "address"
        },
        {
          "indexed": true,
          "internalType": "uint256",
          "name": "txIndex",
          "type": "uint256"
        }
      ],
      "name": "ExecuteTransaction",
      "type": "event"
    },
    {
      "anonymous": false,
      "inputs": [
        {
          "indexed": true,
          "internalType": "address",
          "name": "owner",
          "type": "address"
        },
        {
          "indexed": true,
          "internalType": "uint256",
          "name": "txIndex",
          "type": "uint256"
        }
      ],
      "name": "RevokConfirmation",
      "type": "event"
    },
    {
      "anonymous": false,
      "inputs": [
        {
          "indexed": true,
          "internalType": "address",
          "name": "owner",
          "type": "address"
        },
        {
          "indexed": true,
          "internalType": "uint256",
          "name": "txIndex",
          "type": "uint256"
        },
        {
          "indexed": true,
          "internalType": "address",
          "name": "to",
          "type": "address"
        },
        {
          "indexed": false,
          "internalType": "uint256",
          "name": "value",
          "type": "uint256"
        },
        {
          "indexed": false,
          "internalType": "bytes",
          "name": "data",
          "type": "bytes"
        }
      ],
      "name": "SubmitTransaction",
      "type": "event"
    },
    {
      "inputs": [
        {
          "internalType": "uint256",
          "name": "",
          "type": "uint256"
        },
        {
          "internalType": "address",
          "name": "",
          "type": "address"
        }
      ],
      "name": "isConfirmed",
      "outputs": [
        {
          "internalType": "bool",
          "name": "",
          "type": "bool"
        }
      ],
      "stateMutability": "view",
      "type": "function"
    },
    {
      "inputs": [
        {
          "internalType": "address",
          "name": "",
          "type": "address"
        }
      ],
      "name": "isOwner",
      "outputs": [
        {
          "internalType": "bool",
          "name": "",
          "type": "bool"
        }
      ],
      "stateMutability": "view",
      "type": "function"
    },
    {
      "inputs": [],
      "name": "numConfirmationsRequired",
      "outputs": [
        {
          "internalType": "uint256",
          "name": "",
          "type": "uint256"
        }
      ],
      "stateMutability": "view",
      "type": "function"
    },
    {
      "inputs": [
        {
          "internalType": "uint256",
          "name": "",
          "type": "uint256"
        }
      ],
      "name": "owners",
      "outputs": [
        {
          "internalType": "address",
          "name": "",
          "type": "address"
        }
      ],
      "stateMutability": "view",
      "type": "function"
    },
    {
      "inputs": [
        {
          "internalType": "uint256",
          "name": "",
          "type": "uint256"
        }
      ],
      "name": "transactions",
      "outputs": [
        {
          "internalType": "address",
          "name": "to",
          "type": "address"
        },
        {
          "internalType": "uint256",
          "name": "value",
          "type": "uint256"
        },
        {
          "internalType": "bytes",
          "name": "data",
          "type": "bytes"
        },
        {
          "internalType": "bool",
          "name": "executed",
          "type": "bool"
        },
        {
          "internalType": "uint256",
          "name": "numConfirmations",
          "type": "uint256"
        }
      ],
      "stateMutability": "view",
      "type": "function"
    },
    {
      "stateMutability": "payable",
      "type": "receive"
    },
    {
      "inputs": [
        {
          "internalType": "address",
          "name": "_to",
          "type": "address"
        },
        {
          "internalType": "uint256",
          "name": "_value",
          "type": "uint256"
        },
        {
          "internalType": "bytes",
          "name": "_data",
          "type": "bytes"
        }
      ],
      "name": "submitTransaction",
      "outputs": [],
      "stateMutability": "nonpayable",
      "type": "function"
    },
    {
      "inputs": [
        {
          "internalType": "uint256",
          "name": "_txIndex",
          "type": "uint256"
        }
      ],
      "name": "confirmTransaction",
      "outputs": [],
      "stateMutability": "nonpayable",
      "type": "function"
    },
    {
      "inputs": [
        {
          "internalType": "uint256",
          "name": "_txIndex",
          "type": "uint256"
        }
      ],
      "name": "executeTransaction",
      "outputs": [],
      "stateMutability": "nonpayable",
      "type": "function"
    },
    {
      "inputs": [
        {
          "internalType": "uint256",
          "name": "_txIndex",
          "type": "uint256"
        }
      ],
      "name": "revokeConfirmation",
      "outputs": [],
      "stateMutability": "nonpayable",
      "type": "function"
    },
    {
      "inputs": [],
      "name": "getOwners",
      "outputs": [
        {
          "internalType": "address[]",
          "name": "",
          "type": "address[]"
        }
      ],
      "stateMutability": "view",
      "type": "function"
    },
    {
      "inputs": [],
      "name": "getTransactionCount",
      "outputs": [
        {
          "internalType": "uint256",
          "name": "",
          "type": "uint256"
        }
      ],
      "stateMutability": "view",
      "type": "function"
    },
    {
      "inputs": [
        {
          "internalType": "uint256",
          "name": "_txIndex",
          "type": "uint256"
        }
      ],
      "name": "getTransaction",
      "outputs": [
        {
          "internalType": "address",
          "name": "to",
          "type": "address"
        },
        {
          "internalType": "uint256",
          "name": "value",
          "type": "uint256"
        },
        {
          "internalType": "bytes",
          "name": "data",
          "type": "bytes"
        },
        {
          "internalType": "bool",
          "name": "executed",
          "type": "bool"
        },
        {
          "internalType": "uint256",
          "name": "numConfirmations",
          "type": "uint256"
        }
      ],
      "stateMutability": "view",
      "type": "function"
    }
  ],
  "bytecode": "0x60806040523480156200001157600080fd5b506040516200258f3803806200258f83398181016040528101906200003791906200050d565b60008251116200007e576040517f08c379a00000000000000000000000000000000000000000000000000000000081526004016200007590620005d4565b60405180910390fd5b60008111801562000090575081518111155b620000d2576040517f08c379a0000000000000000000000000000000000000000000000000000000008152600401620000c9906200066c565b60405180910390fd5b60005b8251811015620002d4576000838281518110620000f757620000f66200068e565b5b60200260200101519050600073ffffffffffffffffffffffffffffffffffffffff168173ffffffffffffffffffffffffffffffffffffffff160362000173576040517f08c379a00000000000000000000000000000000000000000000000000000000081526004016200016a906200070d565b60405180910390fd5b600160008273ffffffffffffffffffffffffffffffffffffffff1673ffffffffffffffffffffffffffffffffffffffff16815260200190815260200160002060009054906101000a900460ff161562000203576040517f08c379a0000000000000000000000000000000000000000000000000000000008152600401620001fa906200077f565b60405180910390fd5b60018060008373ffffffffffffffffffffffffffffffffffffffff1673ffffffffffffffffffffffffffffffffffffffff16815260200190815260200160002060006101000a81548160ff0219169083151502179055506000819080600181540180825580915050600190039060005260206000200160009091909190916101000a81548173ffffffffffffffffffffffffffffffffffffffff021916908373ffffffffffffffffffffffffffffffffffffffff160217905550508080620002cb90620007d0565b915050620000d5565b508060028190555050506200081d565b6000604051905090565b600080fd5b600080fd5b600080fd5b6000601f19601f8301169050919050565b7f4e487b7100000000000000000000000000000000000000000000000000000000600052604160045260246000fd5b6200034882620002fd565b810181811067ffffffffffffffff821117156200036a57620003696200030e565b5b80604052505050565b60006200037f620002e4565b90506200038d82826200033d565b919050565b600067ffffffffffffffff821115620003b057620003af6200030e565b5b602082029050602081019050919050565b600080fd5b600073ffffffffffffffffffffffffffffffffffffffff82169050919050565b6000620003f382620003c6565b9050919050565b6200040581620003e6565b81146200041157600080fd5b50565b6000815190506200042581620003fa565b92915050565b6000620004426200043c8462000392565b62000373565b90508083825260208201905060208402830185811115620004685762000467620003c1565b5b835b8181101562000495578062000480888262000414565b8452602084019350506020810190506200046a565b5050509392505050565b600082601f830112620004b757620004b6620002f8565b5b8151620004c98482602086016200042b565b91505092915050565b6000819050919050565b620004e781620004d2565b8114620004f357600080fd5b50565b6000815190506200050781620004dc565b92915050565b60008060408385031215620005275762000526620002ee565b5b600083015167ffffffffffffffff811115620005485762000547620002f3565b5b62000556858286016200049f565b92505060206200056985828601620004f6565b9150509250929050565b600082825260208201905092915050565b7f6f776e6572732072657175697265640000000000000000000000000000000000600082015250565b6000620005bc600f8362000573565b9150620005c98262000584565b602082019050919050565b60006020820190508181036000830152620005ef81620005ad565b9050919050565b7f696e76616c6964206e756d626572206f6620726571756972656420636f6e666960008201527f726d6174696f6e73000000000000000000000000000000000000000000000000602082015250565b60006200065460288362000573565b91506200066182620005f6565b604082019050919050565b60006020820190508181036000830152620006878162000645565b9050919050565b7f4e487b7100000000000000000000000000000000000000000000000000000000600052603260045260246000fd5b7f696e76616c6964206f776e657200000000000000000000000000000000000000600082015250565b6000620006f5600d8362000573565b91506200070282620006bd565b602082019050919050565b600060208201905081810360008301526200072881620006e6565b9050919050565b7f6f776e6572206e6f7420756e6971756500000000000000000000000000000000600082015250565b60006200076760108362000573565b915062000774826200072f565b602082019050919050565b600060208201905081810360008301526200079a8162000758565b9050919050565b7f4e487b7100000000000000000000000000000000000000000000000000000000600052601160045260246000fd5b6000620007dd82620004d2565b91507fffffffffffffffffffffffffffffffffffffffffffffffffffffffffffffffff8203620008125762000811620007a1565b5b600182019050919050565b611d62806200082d6000396000f3fe6080604052600436106100ab5760003560e01c80639ace38c2116100645780639ace38c214610253578063a0e67e2b14610294578063c01a8c84146102bf578063c6427474146102e8578063d0549b8514610311578063ee22610b1461033c57610102565b8063025e7c271461010757806320ea8d86146101445780632e7700f01461016d5780632f54bf6e1461019857806333ea3dc8146101d557806380f59a651461021657610102565b36610102573373ffffffffffffffffffffffffffffffffffffffff167f90890809c654f11d6e72a28fa60149770a0d11ec6c92319d6ceb2bb0a4ea1a1534476040516100f89291906110d0565b60405180910390a2005b600080fd5b34801561011357600080fd5b5061012e60048036038101906101299190611139565b610365565b60405161013b91906111a7565b60405180910390f35b34801561015057600080fd5b5061016b60048036038101906101669190611139565b6103a4565b005b34801561017957600080fd5b506101826105e1565b60405161018f91906111c2565b60405180910390f35b3480156101a457600080fd5b506101bf60048036038101906101ba9190611209565b6105ee565b6040516101cc9190611251565b60405180910390f35b3480156101e157600080fd5b506101fc60048036038101906101f79190611139565b61060e565b60405161020d9594939291906112fc565b60405180910390f35b34801561022257600080fd5b5061023d60048036038101906102389190611356565b610721565b60405161024a9190611251565b60405180910390f35b34801561025f57600080fd5b5061027a60048036038101906102759190611139565b610750565b60405161028b9594939291906112fc565b60405180910390f35b3480156102a057600080fd5b506102a961084b565b6040516102b69190611454565b60405180910390f35b3480156102cb57600080fd5b506102e660048036038101906102e19190611139565b6108d9565b005b3480156102f457600080fd5b5061030f600480360381019061030a91906115ab565b610bb6565b005b34801561031d57600080fd5b50610326610db9565b60405161033391906111c2565b60405180910390f35b34801561034857600080fd5b50610363600480360381019061035e9190611139565b610dbf565b005b6000818154811061037557600080fd5b906000526020600020016000915054906101000a900473ffffffffffffffffffffffffffffffffffffffff1681565b600160003373ffffffffffffffffffffffffffffffffffffffff1673ffffffffffffffffffffffffffffffffffffffff16815260200190815260200160002060009054906101000a900460ff16610430576040517f08c379a000000000000000000000000000000000000000000000000000000000815260040161042790611677565b60405180910390fd5b806004805490508110610478576040517f08c379a000000000000000000000000000000000000000000000000000000000815260040161046f906116e3565b60405180910390fd5b816004818154811061048d5761048c611703565b5b906000526020600020906005020160030160009054906101000a900460ff16156104ec576040517f08c379a00000000000000000000000000000000000000000000000000000000081526004016104e39061177e565b60405180910390fd5b60006004848154811061050257610501611703565b5b90600052602060002090600502019050600181600401600082825461052791906117cd565b9250508190555060006003600086815260200190815260200160002060003373ffffffffffffffffffffffffffffffffffffffff1673ffffffffffffffffffffffffffffffffffffffff16815260200190815260200160002060006101000a81548160ff021916908315150217905550833373ffffffffffffffffffffffffffffffffffffffff167f879b23938e1e671980b706f62d1739dd5a2d8519cd89acdbf2c65e7544dce81960405160405180910390a350505050565b6000600480549050905090565b60016020528060005260406000206000915054906101000a900460ff1681565b600080606060008060006004878154811061062c5761062b611703565b5b906000526020600020906005020190508060000160009054906101000a900473ffffffffffffffffffffffffffffffffffffffff168160010154826002018360030160009054906101000a900460ff16846004015482805461068d90611830565b80601f01602080910402602001604051908101604052809291908181526020018280546106b990611830565b80156107065780601f106106db57610100808354040283529160200191610706565b820191906000526020600020905b8154815290600101906020018083116106e957829003601f168201915b50505050509250955095509550955095505091939590929450565b60036020528160005260406000206020528060005260406000206000915091509054906101000a900460ff1681565b6004818154811061076057600080fd5b90600052602060002090600502016000915090508060000160009054906101000a900473ffffffffffffffffffffffffffffffffffffffff16908060010154908060020180546107af90611830565b80601f01602080910402602001604051908101604052809291908181526020018280546107db90611830565b80156108285780601f106107fd57610100808354040283529160200191610828565b820191906000526020600020905b81548152906001019060200180831161080b57829003601f168201915b5050505050908060030160009054906101000a900460ff16908060040154905085565b606060008054806020026020016040519081016040528092919081815260200182805480156108cf57602002820191906000526020600020905b8160009054906101000a900473ffffffffffffffffffffffffffffffffffffffff1673ffffffffffffffffffffffffffffffffffffffff1681526020019060010190808311610885575b5050505050905090565b600160003373ffffffffffffffffffffffffffffffffffffffff1673ffffffffffffffffffffffffffffffffffffffff16815260200190815260200160002060009054906101000a900460ff16610965576040517f08c379a000000000000000000000000000000000000000000000000000000000815260040161095c90611677565b60405180910390fd5b8060048054905081106109ad576040517f08c379a00000000000000000000000000000000000000000000000000000000081526004016109a4906116e3565b60405180910390fd5b81600481815481106109c2576109c1611703565b5b906000526020600020906005020160030160009054906101000a900460ff1615610a21576040517f08c379a0000000000000000000000000000000000000000000000000000000008152600401610a189061177e565b60405180910390fd5b826003600082815260200190815260200160002060003373ffffffffffffffffffffffffffffffffffffffff1673ffffffffffffffffffffffffffffffffffffffff16815260200190815260200160002060009054906101000a900460ff1615610ac0576040517f08c379a0000000000000000000000000000000000000000000000000000000008152600401610ab7906118ad565b60405180910390fd5b600060048581548110610ad657610ad5611703565b5b906000526020600020906005020190506001816004016000828254610afb91906118cd565b9250508190555060016003600087815260200190815260200160002060003373ffffffffffffffffffffffffffffffffffffffff1673ffffffffffffffffffffffffffffffffffffffff16815260200190815260200160002060006101000a81548160ff021916908315150217905550843373ffffffffffffffffffffffffffffffffffffffff167f5cbe105e36805f7820e291f799d5794ff948af2a5f664e580382defb6339004160405160405180910390a35050505050565b600160003373ffffffffffffffffffffffffffffffffffffffff1673ffffffffffffffffffffffffffffffffffffffff16815260200190815260200160002060009054906101000a900460ff16610c42576040517f08c379a0000000000000000000000000000000000000000000000000000000008152600401610c3990611677565b60405180910390fd5b6000600480549050905060046040518060a001604052808673ffffffffffffffffffffffffffffffffffffffff1681526020018581526020018481526020016000151581526020016000815250908060018154018082558091505060019003906000526020600020906005020160009091909190915060008201518160000160006101000a81548173ffffffffffffffffffffffffffffffffffffffff021916908373ffffffffffffffffffffffffffffffffffffffff160217905550602082015181600101556040820151816002019081610d1e9190611aad565b5060608201518160030160006101000a81548160ff0219169083151502179055506080820151816004015550508373ffffffffffffffffffffffffffffffffffffffff16813373ffffffffffffffffffffffffffffffffffffffff167fd5a05bf70715ad82a09a756320284a1b54c9ff74cd0f8cce6219e79b563fe59d8686604051610dab929190611b7f565b60405180910390a450505050565b60025481565b600160003373ffffffffffffffffffffffffffffffffffffffff1673ffffffffffffffffffffffffffffffffffffffff16815260200190815260200160002060009054906101000a900460ff16610e4b576040517f08c379a0000000000000000000000000000000000000000000000000000000008152600401610e4290611677565b60405180910390fd5b806004805490508110610e93576040517f08c379a0000000000000000000000000000000000000000000000000000000008152600401610e8a906116e3565b60405180910390fd5b8160048181548110610ea857610ea7611703565b5b906000526020600020906005020160030160009054906101000a900460ff1615610f07576040517f08c379a0000000000000000000000000000000000000000000000000000000008152600401610efe9061177e565b60405180910390fd5b600060048481548110610f1d57610f1c611703565b5b9060005260206000209060050201905060025481600401541015610f76576040517f08c379a0000000000000000000000000000000000000000000000000000000008152600401610f6d90611bfb565b60405180910390fd5b60018160030160006101000a81548160ff02191690831515021790555060008160000160009054906101000a900473ffffffffffffffffffffffffffffffffffffffff1673ffffffffffffffffffffffffffffffffffffffff16826001015483600201604051610fe69190611ca9565b60006040518083038185875af1925050503d8060008114611023576040519150601f19603f3d011682016040523d82523d6000602084013e611028565b606091505b505090508061106c576040517f08c379a000000000000000000000000000000000000000000000000000000000815260040161106390611d0c565b60405180910390fd5b843373ffffffffffffffffffffffffffffffffffffffff167f5445f318f4f5fcfb66592e68e0cc5822aa15664039bd5f0ffde24c5a8142b1ac60405160405180910390a35050505050565b6000819050919050565b6110ca816110b7565b82525050565b60006040820190506110e560008301856110c1565b6110f260208301846110c1565b9392505050565b6000604051905090565b600080fd5b600080fd5b611116816110b7565b811461112157600080fd5b50565b6000813590506111338161110d565b92915050565b60006020828403121561114f5761114e611103565b5b600061115d84828501611124565b91505092915050565b600073ffffffffffffffffffffffffffffffffffffffff82169050919050565b600061119182611166565b9050919050565b6111a181611186565b82525050565b60006020820190506111bc6000830184611198565b92915050565b60006020820190506111d760008301846110c1565b92915050565b6111e681611186565b81146111f157600080fd5b50565b600081359050611203816111dd565b92915050565b60006020828403121561121f5761121e611103565b5b600061122d848285016111f4565b91505092915050565b60008115159050919050565b61124b81611236565b82525050565b60006020820190506112666000830184611242565b92915050565b600081519050919050565b600082825260208201905092915050565b60005b838110156112a657808201518184015260208101905061128b565b60008484015250505050565b6000601f19601f8301169050919050565b60006112ce8261126c565b6112d88185611277565b93506112e8818560208601611288565b6112f1816112b2565b840191505092915050565b600060a0820190506113116000830188611198565b61131e60208301876110c1565b818103604083015261133081866112c3565b905061133f6060830185611242565b61134c60808301846110c1565b9695505050505050565b6000806040838503121561136d5761136c611103565b5b600061137b85828601611124565b925050602061138c858286016111f4565b9150509250929050565b600081519050919050565b600082825260208201905092915050565b6000819050602082019050919050565b6113cb81611186565b82525050565b60006113dd83836113c2565b60208301905092915050565b6000602082019050919050565b600061140182611396565b61140b81856113a1565b9350611416836113b2565b8060005b8381101561144757815161142e88826113d1565b9750611439836113e9565b92505060018101905061141a565b5085935050505092915050565b6000602082019050818103600083015261146e81846113f6565b905092915050565b600080fd5b600080fd5b7f4e487b7100000000000000000000000000000000000000000000000000000000600052604160045260246000fd5b6114b8826112b2565b810181811067ffffffffffffffff821117156114d7576114d6611480565b5b80604052505050565b60006114ea6110f9565b90506114f682826114af565b919050565b600067ffffffffffffffff82111561151657611515611480565b5b61151f826112b2565b9050602081019050919050565b82818337600083830152505050565b600061154e611549846114fb565b6114e0565b90508281526020810184848401111561156a5761156961147b565b5b61157584828561152c565b509392505050565b600082601f83011261159257611591611476565b5b81356115a284826020860161153b565b91505092915050565b6000806000606084860312156115c4576115c3611103565b5b60006115d2868287016111f4565b93505060206115e386828701611124565b925050604084013567ffffffffffffffff81111561160457611603611108565b5b6116108682870161157d565b9150509250925092565b600082825260208201905092915050565b7f6e6f74206f776e65720000000000000000000000000000000000000000000000600082015250565b600061166160098361161a565b915061166c8261162b565b602082019050919050565b6000602082019050818103600083015261169081611654565b9050919050565b7f747820646f6573206e6f74206578697374000000000000000000000000000000600082015250565b60006116cd60118361161a565b91506116d882611697565b602082019050919050565b600060208201905081810360008301526116fc816116c0565b9050919050565b7f4e487b7100000000000000000000000000000000000000000000000000000000600052603260045260246000fd5b7f747820616c726561647920657865637574656400000000000000000000000000600082015250565b600061176860138361161a565b915061177382611732565b602082019050919050565b600060208201905081810360008301526117978161175b565b9050919050565b7f4e487b7100000000000000000000000000000000000000000000000000000000600052601160045260246000fd5b60006117d8826110b7565b91506117e3836110b7565b92508282039050818111156117fb576117fa61179e565b5b92915050565b7f4e487b7100000000000000000000000000000000000000000000000000000000600052602260045260246000fd5b6000600282049050600182168061184857607f821691505b60208210810361185b5761185a611801565b5b50919050565b7f747820616c726561647920636f6e6669726d6564000000000000000000000000600082015250565b600061189760148361161a565b91506118a282611861565b602082019050919050565b600060208201905081810360008301526118c68161188a565b9050919050565b60006118d8826110b7565b91506118e3836110b7565b92508282019050808211156118fb576118fa61179e565b5b92915050565b60008190508160005260206000209050919050565b60006020601f8301049050919050565b600082821b905092915050565b6000600883026119637fffffffffffffffffffffffffffffffffffffffffffffffffffffffffffffffff82611926565b61196d8683611926565b95508019841693508086168417925050509392505050565b6000819050919050565b60006119aa6119a56119a0846110b7565b611985565b6110b7565b9050919050565b6000819050919050565b6119c48361198f565b6119d86119d0826119b1565b848454611933565b825550505050565b600090565b6119ed6119e0565b6119f88184846119bb565b505050565b5b81811015611a1c57611a116000826119e5565b6001810190506119fe565b5050565b601f821115611a6157611a3281611901565b611a3b84611916565b81016020851015611a4a578190505b611a5e611a5685611916565b8301826119fd565b50505b505050565b600082821c905092915050565b6000611a8460001984600802611a66565b1980831691505092915050565b6000611a9d8383611a73565b9150826002028217905092915050565b611ab68261126c565b67ffffffffffffffff811115611acf57611ace611480565b5b611ad98254611830565b611ae4828285611a20565b600060209050601f831160018114611b175760008415611b05578287015190505b611b0f8582611a91565b865550611b77565b601f198416611b2586611901565b60005b82811015611b4d57848901518255600182019150602085019450602081019050611b28565b86831015611b6a5784890151611b66601f891682611a73565b8355505b6001600288020188555050505b505050505050565b6000604082019050611b9460008301856110c1565b8181036020830152611ba681846112c3565b90509392505050565b7f63616e6e6f742065786563757465207478000000000000000000000000000000600082015250565b6000611be560118361161a565b9150611bf082611baf565b602082019050919050565b60006020820190508181036000830152611c1481611bd8565b9050919050565b600081905092915050565b60008154611c3381611830565b611c3d8186611c1b565b94506001821660008114611c585760018114611c6d57611ca0565b60ff1983168652811515820286019350611ca0565b611c7685611901565b60005b83811015611c9857815481890152600182019150602081019050611c79565b838801955050505b50505092915050565b6000611cb58284611c26565b915081905092915050565b7f7478206661696c65640000000000000000000000000000000000000000000000600082015250565b6000611cf660098361161a565b9150611d0182611cc0565b602082019050919050565b60006020820190508181036000830152611d2581611ce9565b905091905056fea26469706673582212207e606f62fb3226abd9eb3a188229625a7a39517fee452e26aa1a5b461ae17ddd64736f6c63430008110033",
  "immutableReferences": {},
  "source": "// SPDX-License-Identifier: MIT\r\npragma solidity ^0.8.13;\r\n\r\ncontract MultiSigWallet{\r\n\r\n    event Deposit(address indexed sender, uint amount, uint balance);\r\n    event SubmitTransaction(\r\n        address indexed owner,\r\n        uint indexed txIndex,\r\n        address indexed to, \r\n        uint value,\r\n        bytes data\r\n    );\r\n\r\n    event ConfirmTransaction(\r\n        address indexed owner,\r\n        uint indexed txIndex\r\n    );\r\n\r\n    event ExecuteTransaction(\r\n        address indexed owner,\r\n        uint indexed txIndex\r\n    );\r\n\r\n    event RevokConfirmation(\r\n        address indexed owner,\r\n        uint indexed txIndex\r\n    );\r\n\r\n    address[] public owners;\r\n    mapping(address =>bool) public isOwner;\r\n    uint public numConfirmationsRequired;\r\n\r\n    struct Transaction{\r\n        address to;\r\n        uint value;\r\n        bytes data;\r\n        bool executed;\r\n        uint numConfirmations;\r\n    }\r\n\r\n    mapping(uint=>mapping(address=>bool)) public isConfirmed;\r\n\r\n    Transaction[] public transactions;\r\n\r\n    modifier onlyOwner(){\r\n        require(isOwner[msg.sender],\"not owner\");\r\n        _;\r\n    }\r\n\r\n    modifier txExist(uint _txIndex){\r\n        require(_txIndex < transactions.length,\"tx does not exist\");\r\n        _;\r\n    }\r\n    modifier notExcuted(uint _txIndex){\r\n         require(!transactions[_txIndex].executed,\"tx already executed\");\r\n        _;\r\n    }\r\n    modifier notConfirm(uint _txIndex){\r\n         require(!isConfirmed[_txIndex][msg.sender],\"tx already confirmed\");\r\n        _;\r\n    }\r\n\r\n    constructor(address[] memory _owners, uint _numConfirmationsRequired){\r\n        require(_owners.length>0,\"owners required\");\r\n        require(_numConfirmationsRequired >0 && _numConfirmationsRequired <= _owners.length,\r\n        \"invalid number of required confirmations\");\r\n\r\n        for(uint i=0; i < _owners.length;i++){\r\n            address owner = _owners[i];\r\n\r\n            require(owner!= address(0), \"invalid owner\");\r\n            require(!isOwner[owner],\"owner not unique\");\r\n\r\n            isOwner[owner]= true;\r\n            owners.push(owner);\r\n        }\r\n\r\n        numConfirmationsRequired= _numConfirmationsRequired;\r\n    }\r\n\r\n    receive() external payable{\r\n        emit Deposit(msg.sender, msg.value, address(this).balance);\r\n    }\r\n\r\n    function submitTransaction(address _to, uint _value, bytes memory _data) public onlyOwner{\r\n        uint txIndex = transactions.length;\r\n\r\n        transactions.push(Transaction({\r\n            to:_to,\r\n            value:_value,\r\n            data:_data,\r\n            executed:false,\r\n            numConfirmations:0\r\n        }));\r\n\r\n        emit SubmitTransaction(\r\n            msg.sender,\r\n            txIndex, \r\n            _to, \r\n            _value, \r\n            _data);\r\n\r\n    }\r\n\r\n    function confirmTransaction(uint _txIndex) public\r\n     onlyOwner \r\n     txExist(_txIndex)\r\n     notExcuted(_txIndex)\r\n     notConfirm(_txIndex){\r\n\r\n         Transaction storage transaction= transactions[_txIndex];\r\n         transaction.numConfirmations +=1;\r\n         isConfirmed[_txIndex][msg.sender]=true;\r\n\r\n         emit ConfirmTransaction(msg.sender, _txIndex);\r\n\r\n\r\n     }\r\n\r\n    function executeTransaction(uint _txIndex) public\r\n     onlyOwner\r\n     txExist(_txIndex)\r\n     notExcuted(_txIndex){\r\n        Transaction storage transaction = transactions[_txIndex];\r\n\r\n        require(transaction.numConfirmations>= numConfirmationsRequired,\r\n         \"cannot execute tx\");\r\n\r\n        transaction.executed = true;\r\n         (bool success,) = transaction.to.call{value: transaction.value}(\r\n             transaction.data);\r\n\r\n        require(success, \"tx failed\");\r\n\r\n        emit ExecuteTransaction(msg.sender, _txIndex);\r\n      }\r\n\r\n    function revokeConfirmation(uint _txIndex) public \r\n    onlyOwner\r\n    txExist(_txIndex)\r\n    notExcuted(_txIndex)\r\n    {\r\n            Transaction storage transaction = transactions[_txIndex];\r\n\r\n            transaction.numConfirmations -=1;\r\n            isConfirmed[_txIndex][msg.sender] = false;\r\n\r\n            emit RevokConfirmation(msg.sender, _txIndex);\r\n    }\r\n\r\n    function getOwners() public view returns(address[] memory){\r\n        return owners;\r\n    }\r\n\r\n    function getTransactionCount() public view returns(uint){\r\n        return transactions.length;\r\n    }\r\n\r\n    function getTransaction(uint _txIndex) \r\n    public \r\n    view\r\n    returns(\r\n        address to,\r\n        uint value,\r\n        bytes memory data,\r\n        bool executed,\r\n        uint numConfirmations\r\n    ){\r\n        Transaction storage transaction = transactions[_txIndex];\r\n\r\n        return(\r\n            transaction.to,\r\n            transaction.value,\r\n            transaction.data,\r\n            transaction.executed,\r\n            transaction.numConfirmations\r\n        );\r\n    }\r\n\r\n}",
  "sourcePath": "C:\\udemy\\multiSigWallet\\contracts\\MultiSigWallet.sol",
  "compiler": {
    "name": "solc",
    "version": "0.8.17+commit.8df45f5f.Emscripten.clang"
  },
  "schemaVersion": "3.4.10",
  "updatedAt": "2022-11-05T22:22:41.979Z",
  "devdoc": {
    "kind": "dev",
    "methods": {},
    "version": 1
  },
  "userdoc": {
    "kind": "user",
    "methods": {},
    "version": 1
  }
}